{
  "_format": "hh-sol-artifact-1",
  "contractName": "NFTMarket",
  "sourceName": "contracts/QuestionaryEgg.sol",
  "abi": [
    {
      "constant": false,
      "inputs": [
        {
          "name": "from",
          "type": "address"
        },
        {
          "name": "tokenId",
          "type": "uint256"
        }
      ],
      "name": "onKIP17Received",
      "outputs": [
        {
          "name": "",
          "type": "bytes4"
        }
      ],
      "payable": false,
      "stateMutability": "nonpayable",
      "type": "function"
    },
    {
      "constant": true,
      "inputs": [
        {
          "name": "",
          "type": "uint256"
        }
      ],
      "name": "seller",
      "outputs": [
        {
          "name": "",
          "type": "address"
        }
      ],
      "payable": false,
      "stateMutability": "view",
      "type": "function"
    },
    {
      "constant": false,
      "inputs": [
        {
          "name": "tokenId",
          "type": "uint256"
        },
        {
          "name": "NFTAddress",
          "type": "address"
        }
      ],
      "name": "buyNFT",
      "outputs": [
        {
          "name": "",
          "type": "bool"
        }
      ],
      "payable": true,
      "stateMutability": "payable",
      "type": "function"
    }
  ],
  "bytecode": "0x608060405234801561001057600080fd5b50610478806100206000396000f3fe6080604052600436106100345760003560e01c806362eeb84b14610039578063aacdfe6f146100e6578063d8db47a714610161575b600080fd5b34801561004557600080fd5b506100926004803603604081101561005c57600080fd5b81019080803573ffffffffffffffffffffffffffffffffffffffff169060200190929190803590602001909291905050506101c7565b60405180827bffffffffffffffffffffffffffffffffffffffffffffffffffffffff19167bffffffffffffffffffffffffffffffffffffffffffffffffffffffff1916815260200191505060405180910390f35b3480156100f257600080fd5b5061011f6004803603602081101561010957600080fd5b810190808035906020019092919050505061023b565b604051808273ffffffffffffffffffffffffffffffffffffffff1673ffffffffffffffffffffffffffffffffffffffff16815260200191505060405180910390f35b6101ad6004803603604081101561017757600080fd5b8101908080359060200190929190803573ffffffffffffffffffffffffffffffffffffffff16906020019092919050505061026e565b604051808215151515815260200191505060405180910390f35b60008260008084815260200190815260200160002060006101000a81548173ffffffffffffffffffffffffffffffffffffffff021916908373ffffffffffffffffffffffffffffffffffffffff160217905550604051808061041c6031913960310190506040518091039020905092915050565b60006020528060005260406000206000915054906101000a900473ffffffffffffffffffffffffffffffffffffffff1681565b60008060008085815260200190815260200160002060009054906101000a900473ffffffffffffffffffffffffffffffffffffffff1673ffffffffffffffffffffffffffffffffffffffff1690508073ffffffffffffffffffffffffffffffffffffffff166108fc60019081150290604051600060405180830381858888f19350505050158015610303573d6000803e3d6000fd5b508273ffffffffffffffffffffffffffffffffffffffff1663b88d4fde3033876040518463ffffffff1660e01b8152600401808473ffffffffffffffffffffffffffffffffffffffff1673ffffffffffffffffffffffffffffffffffffffff1681526020018373ffffffffffffffffffffffffffffffffffffffff1673ffffffffffffffffffffffffffffffffffffffff16815260200182815260200180602001828103825260048152602001807f3078303000000000000000000000000000000000000000000000000000000000815250602001945050505050600060405180830381600087803b1580156103f857600080fd5b505af115801561040c573d6000803e3d6000fd5b5050505060019150509291505056fe6f6e4b49503137526563656976656428616464726573732c20616464726573732c2075696e743235362c20627974657329a165627a7a72305820ce199fddf794e96d55b0bd6ba557f68a163231cc43ba5bb9ae182d048cac70f60029",
  "linkReferences": {},
  "deployedLinkReferences": {}
}